{
  "contractName": "Ratings",
  "abi": [
    {
      "inputs": [
        {
          "internalType": "bytes32[]",
          "name": "_movies",
          "type": "bytes32[]"
        }
      ],
      "payable": false,
      "stateMutability": "nonpayable",
      "type": "constructor"
    },
    {
      "constant": true,
      "inputs": [],
      "name": "accAddress",
      "outputs": [
        {
          "internalType": "string",
          "name": "",
          "type": "string"
        }
      ],
      "payable": false,
      "stateMutability": "view",
      "type": "function"
    },
    {
      "constant": true,
      "inputs": [],
      "name": "mov",
      "outputs": [
        {
          "internalType": "uint256",
          "name": "id",
          "type": "uint256"
        },
        {
          "internalType": "string",
          "name": "name",
          "type": "string"
        },
        {
          "internalType": "uint256",
          "name": "rating",
          "type": "uint256"
        },
        {
          "internalType": "uint256",
          "name": "numOfRatings",
          "type": "uint256"
        }
      ],
      "payable": false,
      "stateMutability": "view",
      "type": "function"
    },
    {
      "constant": true,
      "inputs": [
        {
          "internalType": "uint256",
          "name": "",
          "type": "uint256"
        }
      ],
      "name": "movies",
      "outputs": [
        {
          "internalType": "uint256",
          "name": "id",
          "type": "uint256"
        },
        {
          "internalType": "string",
          "name": "name",
          "type": "string"
        },
        {
          "internalType": "uint256",
          "name": "rating",
          "type": "uint256"
        },
        {
          "internalType": "uint256",
          "name": "numOfRatings",
          "type": "uint256"
        }
      ],
      "payable": false,
      "stateMutability": "view",
      "type": "function"
    },
    {
      "constant": true,
      "inputs": [],
      "name": "numOfMovies",
      "outputs": [
        {
          "internalType": "uint256",
          "name": "",
          "type": "uint256"
        }
      ],
      "payable": false,
      "stateMutability": "view",
      "type": "function"
    },
    {
      "constant": true,
      "inputs": [],
      "name": "rat",
      "outputs": [
        {
          "internalType": "uint256",
          "name": "movieId",
          "type": "uint256"
        },
        {
          "internalType": "uint256",
          "name": "rating",
          "type": "uint256"
        }
      ],
      "payable": false,
      "stateMutability": "view",
      "type": "function"
    },
    {
      "constant": true,
      "inputs": [
        {
          "internalType": "string",
          "name": "",
          "type": "string"
        },
        {
          "internalType": "uint256",
          "name": "",
          "type": "uint256"
        }
      ],
      "name": "ratingByUsers",
      "outputs": [
        {
          "internalType": "uint256",
          "name": "movieId",
          "type": "uint256"
        },
        {
          "internalType": "uint256",
          "name": "rating",
          "type": "uint256"
        }
      ],
      "payable": false,
      "stateMutability": "view",
      "type": "function"
    },
    {
      "constant": true,
      "inputs": [
        {
          "internalType": "uint256",
          "name": "",
          "type": "uint256"
        }
      ],
      "name": "userArray",
      "outputs": [
        {
          "internalType": "uint256",
          "name": "movieId",
          "type": "uint256"
        },
        {
          "internalType": "uint256",
          "name": "rating",
          "type": "uint256"
        }
      ],
      "payable": false,
      "stateMutability": "view",
      "type": "function"
    },
    {
      "constant": false,
      "inputs": [
        {
          "internalType": "bytes32[]",
          "name": "_movies",
          "type": "bytes32[]"
        }
      ],
      "name": "createMovies",
      "outputs": [],
      "payable": true,
      "stateMutability": "payable",
      "type": "function"
    },
    {
      "constant": false,
      "inputs": [
        {
          "internalType": "string",
          "name": "_add",
          "type": "string"
        }
      ],
      "name": "setAccount",
      "outputs": [],
      "payable": false,
      "stateMutability": "nonpayable",
      "type": "function"
    },
    {
      "constant": true,
      "inputs": [
        {
          "internalType": "string",
          "name": "userId",
          "type": "string"
        }
      ],
      "name": "getRating",
      "outputs": [
        {
          "components": [
            {
              "internalType": "uint256",
              "name": "movieId",
              "type": "uint256"
            },
            {
              "internalType": "uint256",
              "name": "rating",
              "type": "uint256"
            }
          ],
          "internalType": "struct Ratings.RatingByUser[]",
          "name": "ratingByUsersArr",
          "type": "tuple[]"
        }
      ],
      "payable": false,
      "stateMutability": "view",
      "type": "function"
    },
    {
      "constant": false,
      "inputs": [
        {
          "internalType": "uint256",
          "name": "_rating",
          "type": "uint256"
        },
        {
          "internalType": "uint256",
          "name": "_movieId",
          "type": "uint256"
        }
      ],
      "name": "addRating",
      "outputs": [],
      "payable": false,
      "stateMutability": "nonpayable",
      "type": "function"
    }
  ],
  "bytecode": "0x6080604052600080553480156200001557600080fd5b5060405162001a9c38038062001a9c83398181016040526200003b9190810190620004ff565b6200004c816200009960201b60201c565b620000926040518060400160405280600481526020017f61626364000000000000000000000000000000000000000000000000000000008152506200016c60201b60201c565b50620005bf565b60008151905060008090505b8181101562000167576040518060800160405280828152602001620000e4858481518110620000d057fe5b60200260200101516200018860201b60201c565b8152602001600081526020016000815250600260008381526020019081526020016000206000820151816000015560208201518160010190805190602001906200013092919062000325565b50604082015181600201556060820151816003015590505060008081548092919060010191905055508080600101915050620000a5565b505050565b806001908051906020019062000184929190620003ac565b5050565b60608060206040519080825280601f01601f191660200182016040528015620001c05781602001600182028038833980820191505090505b509050600080905060008090505b60208110156200026e5760008160080260020a8660001c0260001b9050600060f81b817effffffffffffffffffffffffffffffffffffffffffffffffffffffffffffff1916146200025f57808484815181106200022757fe5b60200101907effffffffffffffffffffffffffffffffffffffffffffffffffffffffffffff1916908160001a90535082806001019350505b508080600101915050620001ce565b506060816040519080825280601f01601f191660200182016040528015620002a55781602001600182028038833980820191505090505b50905060008090505b828110156200031957838181518110620002c457fe5b602001015160f81c60f81b828281518110620002dc57fe5b60200101907effffffffffffffffffffffffffffffffffffffffffffffffffffffffffffff1916908160001a9053508080600101915050620002ae565b50809350505050919050565b828054600181600116156101000203166002900490600052602060002090601f016020900481019282601f106200036857805160ff191683800117855562000399565b8280016001018555821562000399579182015b82811115620003985782518255916020019190600101906200037b565b5b509050620003a8919062000433565b5090565b828054600181600116156101000203166002900490600052602060002090601f016020900481019282601f10620003ef57805160ff191683800117855562000420565b8280016001018555821562000420579182015b828111156200041f57825182559160200191906001019062000402565b5b5090506200042f919062000433565b5090565b6200045891905b80821115620004545760008160009055506001016200043a565b5090565b90565b600082601f8301126200046d57600080fd5b8151620004846200047e8262000572565b62000544565b91508181835260208401935060208101905083856020840282011115620004aa57600080fd5b60005b83811015620004de5781620004c38882620004e8565b845260208401935060208301925050600181019050620004ad565b5050505092915050565b600081519050620004f981620005a5565b92915050565b6000602082840312156200051257600080fd5b600082015167ffffffffffffffff8111156200052d57600080fd5b6200053b848285016200045b565b91505092915050565b6000604051905081810181811067ffffffffffffffff821117156200056857600080fd5b8060405250919050565b600067ffffffffffffffff8211156200058a57600080fd5b602082029050602081019050919050565b6000819050919050565b620005b0816200059b565b8114620005bc57600080fd5b50565b6114cd80620005cf6000396000f3fe60806040526004361061009c5760003560e01c8063762d3f0c11610064578063762d3f0c146101b457806379abe844146101dd578063ee30e60f14610208578063ee34c23014610233578063f5a7ab6e1461024f578063f8326a5e1461027b5761009c565b80632e9f906f146100a1578063404ebf6c146100cf57806341209af11461010f57806352aba7f11461014d5780636760576a1461018b575b600080fd5b3480156100ad57600080fd5b506100b66102b8565b6040516100c69493929190611253565b60405180910390f35b3480156100db57600080fd5b506100f660048036036100f19190810190610fa6565b61036e565b6040516101069493929190611253565b60405180910390f35b34801561011b57600080fd5b5061013660048036036101319190810190610fa6565b610436565b60405161014492919061129f565b60405180910390f35b34801561015957600080fd5b50610174600480360361016f9190810190610f52565b610467565b60405161018292919061129f565b60405180910390f35b34801561019757600080fd5b506101b260048036036101ad9190810190610fcf565b6104bb565b005b3480156101c057600080fd5b506101db60048036036101d69190810190610f11565b610846565b005b3480156101e957600080fd5b506101f2610860565b6040516101ff9190611238565b60405180910390f35b34801561021457600080fd5b5061021d610866565b60405161022a9190611216565b60405180910390f35b61024d60048036036102489190810190610ed0565b610904565b005b34801561025b57600080fd5b506102646109ca565b60405161027292919061129f565b60405180910390f35b34801561028757600080fd5b506102a2600480360361029d9190810190610f11565b6109dc565b6040516102af91906111f4565b60405180910390f35b6004806000015490806001018054600181600116156101000203166002900480601f0160208091040260200160405190810160405280929190818152602001828054600181600116156101000203166002900480156103585780601f1061032d57610100808354040283529160200191610358565b820191906000526020600020905b81548152906001019060200180831161033b57829003601f168201915b5050505050908060020154908060030154905084565b6002602052806000526040600020600091509050806000015490806001018054600181600116156101000203166002900480601f0160208091040260200160405190810160405280929190818152602001828054600181600116156101000203166002900480156104205780601f106103f557610100808354040283529160200191610420565b820191906000526020600020905b81548152906001019060200180831161040357829003601f168201915b5050505050908060020154908060030154905084565b600a818154811061044357fe5b90600052602060002090600202016000915090508060000154908060010154905082565b600382805160208101820180518482526020830160208501208183528095505050505050818154811061049657fe5b9060005260206000209060020201600091509150508060000154908060010154905082565b6000600360016040516104ce91906111dd565b908152602001604051809103902090506104e6610c14565b6002600084815260200190815260200160002060405180608001604052908160008201548152602001600182018054600181600116156101000203166002900480601f0160208091040260200160405190810160405280929190818152602001828054600181600116156101000203166002900480156105a75780601f1061057c576101008083540402835291602001916105a7565b820191906000526020600020905b81548152906001019060200180831161058a57829003601f168201915b505050505081526020016002820154815260200160038201548152505090506000828054905014156106695760008090505b60005481101561066757600360016040516105f491906111dd565b90815260200160405180910390206040518060400160405280838152602001600081525090806001815401808255809150509060018203906000526020600020906002020160009091929091909150600082015181600001556020820151816001015550505080806001019150506105d9565b505b610671610c3c565b82848154811061067d57fe5b90600052602060002090600202016040518060400160405290816000820154815260200160018201548152505090506000816020015114156106ef5760018260600151018260600181815250506106e1606486028360400151018360600151610a6d565b82604001818152505061072b565b600081602001519050600083604001518460600151029050606487028282030190508360600151818161071e57fe5b0484604001818152505050505b6040518060400160405280858152602001606487028152506003600160405161075491906111dd565b9081526020016040518091039020858154811061076d57fe5b9060005260206000209060020201600082015181600001556020820151816001015590505081600260008681526020019081526020016000206000820151816000015560208201518160010190805190602001906107cc929190610c56565b50604082015181600201556060820151816003015590505081600460008201518160000155602082015181600101908051906020019061080d929190610c56565b50604082015181600201556060820151816003015590505080600860008201518160000155602082015181600101559050505050505050565b806001908051906020019061085c929190610cd6565b5050565b60005481565b60018054600181600116156101000203166002900480601f0160208091040260200160405190810160405280929190818152602001828054600181600116156101000203166002900480156108fc5780601f106108d1576101008083540402835291602001916108fc565b820191906000526020600020905b8154815290600101906020018083116108df57829003601f168201915b505050505081565b60008151905060008090505b818110156109c557604051806080016040528082815260200161094585848151811061093857fe5b6020026020010151610a81565b81526020016000815260200160008152506002600083815260200190815260200160002060008201518160000155602082015181600101908051906020019061098f929190610c56565b50604082015181600201556060820151816003015590505060008081548092919060010191905055508080600101915050610910565b505050565b60088060000154908060010154905082565b60606003826040516109ee91906111c6565b9081526020016040518091039020805480602002602001604051908101604052809291908181526020016000905b82821015610a6257838290600052602060002090600202016040518060400160405290816000820154815260200160018201548152505081526020019060010190610a1c565b505050509050919050565b6000818381610a7857fe5b04905092915050565b60608060206040519080825280601f01601f191660200182016040528015610ab85781602001600182028038833980820191505090505b509050600080905060008090505b6020811015610b625760008160080260020a8660001c0260001b9050600060f81b817effffffffffffffffffffffffffffffffffffffffffffffffffffffffffffff191614610b545780848481518110610b1c57fe5b60200101907effffffffffffffffffffffffffffffffffffffffffffffffffffffffffffff1916908160001a90535082806001019350505b508080600101915050610ac6565b506060816040519080825280601f01601f191660200182016040528015610b985781602001600182028038833980820191505090505b50905060008090505b82811015610c0857838181518110610bb557fe5b602001015160f81c60f81b828281518110610bcc57fe5b60200101907effffffffffffffffffffffffffffffffffffffffffffffffffffffffffffff1916908160001a9053508080600101915050610ba1565b50809350505050919050565b6040518060800160405280600081526020016060815260200160008152602001600081525090565b604051806040016040528060008152602001600081525090565b828054600181600116156101000203166002900490600052602060002090601f016020900481019282601f10610c9757805160ff1916838001178555610cc5565b82800160010185558215610cc5579182015b82811115610cc4578251825591602001919060010190610ca9565b5b509050610cd29190610d56565b5090565b828054600181600116156101000203166002900490600052602060002090601f016020900481019282601f10610d1757805160ff1916838001178555610d45565b82800160010185558215610d45579182015b82811115610d44578251825591602001919060010190610d29565b5b509050610d529190610d56565b5090565b610d7891905b80821115610d74576000816000905550600101610d5c565b5090565b90565b600082601f830112610d8c57600080fd5b8135610d9f610d9a826112f5565b6112c8565b91508181835260208401935060208101905083856020840282011115610dc457600080fd5b60005b83811015610df45781610dda8882610dfe565b845260208401935060208301925050600181019050610dc7565b5050505092915050565b600081359050610e0d8161145c565b92915050565b600082601f830112610e2457600080fd5b8135610e37610e328261131d565b6112c8565b91508082526020830160208301858383011115610e5357600080fd5b610e5e838284611409565b50505092915050565b600082601f830112610e7857600080fd5b8135610e8b610e8682611349565b6112c8565b91508082526020830160208301858383011115610ea757600080fd5b610eb2838284611409565b50505092915050565b600081359050610eca81611473565b92915050565b600060208284031215610ee257600080fd5b600082013567ffffffffffffffff811115610efc57600080fd5b610f0884828501610d7b565b91505092915050565b600060208284031215610f2357600080fd5b600082013567ffffffffffffffff811115610f3d57600080fd5b610f4984828501610e67565b91505092915050565b60008060408385031215610f6557600080fd5b600083013567ffffffffffffffff811115610f7f57600080fd5b610f8b85828601610e13565b9250506020610f9c85828601610ebb565b9150509250929050565b600060208284031215610fb857600080fd5b6000610fc684828501610ebb565b91505092915050565b60008060408385031215610fe257600080fd5b6000610ff085828601610ebb565b925050602061100185828601610ebb565b9150509250929050565b60006110178383611179565b60408301905092915050565b600061102e8261139a565b61103881856113c8565b935061104383611375565b8060005b8381101561107457815161105b888261100b565b9750611066836113bb565b925050600181019050611047565b5085935050505092915050565b600061108c826113b0565b61109681856113ea565b93506110a6818560208601611418565b80840191505092915050565b60006110bd826113a5565b6110c781856113d9565b93506110d7818560208601611418565b6110e08161144b565b840191505092915050565b600081546001811660008114611108576001811461112d57611171565b607f600283041661111981876113ea565b955060ff1983168652808601935050611171565b6002820461113b81876113ea565b955061114685611385565b60005b8281101561116857815481890152600182019150602081019050611149565b82880195505050505b505092915050565b60408201600082015161118f60008501826111a8565b5060208201516111a260208501826111a8565b50505050565b6111b1816113ff565b82525050565b6111c0816113ff565b82525050565b60006111d28284611081565b915081905092915050565b60006111e982846110eb565b915081905092915050565b6000602082019050818103600083015261120e8184611023565b905092915050565b6000602082019050818103600083015261123081846110b2565b905092915050565b600060208201905061124d60008301846111b7565b92915050565b600060808201905061126860008301876111b7565b818103602083015261127a81866110b2565b905061128960408301856111b7565b61129660608301846111b7565b95945050505050565b60006040820190506112b460008301856111b7565b6112c160208301846111b7565b9392505050565b6000604051905081810181811067ffffffffffffffff821117156112eb57600080fd5b8060405250919050565b600067ffffffffffffffff82111561130c57600080fd5b602082029050602081019050919050565b600067ffffffffffffffff82111561133457600080fd5b601f19601f8301169050602081019050919050565b600067ffffffffffffffff82111561136057600080fd5b601f19601f8301169050602081019050919050565b6000819050602082019050919050565b60008190508160005260206000209050919050565b600081519050919050565b600081519050919050565b600081519050919050565b6000602082019050919050565b600082825260208201905092915050565b600082825260208201905092915050565b600081905092915050565b6000819050919050565b6000819050919050565b82818337600083830152505050565b60005b8381101561143657808201518184015260208101905061141b565b83811115611445576000848401525b50505050565b6000601f19601f8301169050919050565b611465816113f5565b811461147057600080fd5b50565b61147c816113ff565b811461148757600080fd5b5056fea365627a7a72315820c3ab6cc27c9d4160e74843aa300887f956f0316c4b4bf136d61374a808fadccd6c6578706572696d656e74616cf564736f6c63430005100040",
  "source": "// SPDX-License-Identifier: MIT\r\npragma experimental ABIEncoderV2;\r\npragma solidity >=0.4.22 <0.9.0;\r\n\r\ncontract Ratings {\r\n    uint public numOfMovies = 0;\r\n    string public accAddress;\r\n\r\n    struct Movie {\r\n        uint id; \r\n        string name;\r\n        uint rating; \r\n        uint numOfRatings;\r\n    }\r\n     \r\n    struct RatingByUser {\r\n        uint movieId;\r\n        uint rating;\r\n    }\r\n\r\n    // abcd = > [{uint movieId; uint rating;}]\r\n\r\n    mapping(uint => Movie) public movies;\r\n    mapping(string => RatingByUser[]) public ratingByUsers;\r\n    Movie public mov;\r\n    RatingByUser public rat;\r\n    RatingByUser[] public  userArray;\r\n\r\n    constructor(bytes32[] memory _movies) public {\r\n        createMovies(_movies);\r\n        setAccount(\"abcd\");\r\n    }\r\n\r\n\r\n\r\n    function createMovies(bytes32[] memory _movies) public payable {\r\n        uint _movieLen = _movies.length;\r\n        for(uint i=0; i<_movieLen; i++) {\r\n             movies[i] = Movie(i, toString(_movies[i]), 0, 0);\r\n             numOfMovies++;\r\n        }\r\n    }\r\n\r\n    function setAccount(string memory _add) public {\r\n        accAddress = _add;\r\n    }\r\n\r\n    function getRating(string memory userId) public view returns(RatingByUser[] memory ratingByUsersArr) {\r\n        return ratingByUsers[userId];\r\n    }\r\n\r\n    function addRating(uint _rating, uint _movieId) public {\r\n        RatingByUser[] storage _ratingByUserArr  = ratingByUsers[accAddress];\r\n        // userArray = _ratingByUserArray;\r\n        Movie memory _movie = movies[_movieId];\r\n\r\n        if( _ratingByUserArr.length == 0){\r\n          for(uint i=0; i < numOfMovies; i++) {\r\n          ratingByUsers[accAddress].push(RatingByUser(i, 0));\r\n          }\r\n        }\r\n\r\n        RatingByUser memory _ratingByUser = _ratingByUserArr[_movieId];\r\n\r\n        if(_ratingByUser.rating == 0) {\r\n        _movie.numOfRatings = _movie.numOfRatings + 1;\r\n        _movie.rating = calc(_movie.rating + (_rating * 100),_movie.numOfRatings);\r\n        } else {\r\n            uint _prevRating = _ratingByUser.rating;\r\n            uint _totalRating = _movie.numOfRatings * _movie.rating;\r\n            _totalRating = _totalRating - (_prevRating) + (_rating * 100);\r\n            _movie.rating = _totalRating/_movie.numOfRatings;\r\n        }\r\n\r\n        ratingByUsers[accAddress][_movieId] = RatingByUser(_movieId, _rating * 100);\r\n        movies[_movieId] = _movie;\r\n        \r\n        mov = _movie;\r\n        rat = _ratingByUser;\r\n    }\r\n\r\n    // take bytes32 and return a string\r\nfunction toString(bytes32 _data)\r\n  pure\r\n  private\r\n  returns (string memory)\r\n{\r\n  // create new bytes with a length of 32\r\n  // needs to be bytes type rather than bytes32 in order to be writeable\r\n  bytes memory _bytesContainer = new bytes(32);\r\n  // uint to keep track of actual character length of string\r\n  // bytes32 is always 32 characters long the string may be shorter\r\n  uint256 _charCount = 0;\r\n  // loop through every element in bytes32\r\n  for (uint256 _bytesCounter = 0; _bytesCounter < 32; _bytesCounter++) {\r\n    /*\r\n    TLDR: takes a single character from bytes based on counter\r\n    convert bytes32 data to uint in order to increase the number enough to\r\n    shift bytes further left while pushing out leftmost bytes\r\n    then convert uint256 data back to bytes32\r\n    then convert to bytes1 where everything but the leftmost hex value (byte)\r\n    is cutoff leaving only the leftmost byte\r\n    */\r\n    bytes1 _char = bytes1(bytes32(uint256(_data) * 2 ** (8 * _bytesCounter)));\r\n    // if the character is not empty\r\n    if (_char != 0) {\r\n      // add to bytes representing string\r\n      _bytesContainer[_charCount] = _char;\r\n      // increment count so we know length later\r\n      _charCount++;\r\n    }\r\n  }\r\n\r\n  // create dynamically sized bytes array to use for trimming\r\n  bytes memory _bytesContainerTrimmed = new bytes(_charCount);\r\n\r\n  // loop through for character length of string\r\n  for (uint256 _charCounter = 0; _charCounter < _charCount; _charCounter++) {\r\n    // add each character to trimmed bytes container, leaving out extra\r\n    _bytesContainerTrimmed[_charCounter] = _bytesContainer[_charCounter];\r\n  }\r\n\r\n  // return correct length string with no padding\r\n  return string(_bytesContainerTrimmed);\r\n}\r\n\r\nfunction calc(uint a, uint b) private pure returns ( uint)  {\r\n\r\n    //  return a*(10**precision)/b;\r\n    return a/b;\r\n }\r\n\r\n}",
  "sourcePath": "C:\\Users\\yashs\\OneDrive\\Documents\\Blockchain Apps\\Movie Rating\\contracts\\Ratings.sol",
  "compiler": {
    "name": "solc",
    "version": "0.5.16+commit.9c3226ce.Emscripten.clang"
  },
  "schemaVersion": "3.4.3",
  "updatedAt": "2021-09-05T16:54:07.040Z",
  "networkType": "ethereum",
  "devdoc": {
    "methods": {}
  },
  "userdoc": {
    "methods": {}
  }
}